:100000004F28FF3FFF3FFF3F031383120D08003AC5
:10001000031D0D28C0308E004C280D08013A031D29
:100020001428F9308E004C280D08023A031D1B28B5
:10003000A4308E004C280D08033A031D2228B0304E
:100040008E004C280D08043A031D292899308E0093
:100050004C280D08053A031D302892308E004C289C
:100060000D08063A031D372882308E004C280D08F3
:10007000073A031D3E28F8308E004C280D08083A38
:10008000031D452880308E004C280D08093A031DB9
:100090004C2890308E004C280E08C0000800031336
:1000A00083160313831686018C01031383160C0831
:1000B0008D000420400886000230CC00FF30CB00C9
:1000C000FF30CA00CC0B65286C28CB0B68286B2846
:1000D000CA0B6828652862280630CB00FF30CA00AA
:1000E000CB0B73287628CA0B732870280A30CA00F5
:1000F000CA0B782800008C0A0C080A3A031D8128D4
:10010000822855284F288328FF3FFF3FFF3FFF3FAE
:02400E00FA3F77
:00000001FF
