:100000000428FF3FFF3FFF3F03138316850186014E
:10001000831285018D015C20400886008C0101302F
:100020000505C1004108013A031D34280C0AC0002F
:1000300040088C0040088D005C204008860082301B
:10004000CB00FF30CA00CB0B26282928CA0B262854
:1000500023288730CA00CA0B2B2800000C08093C53
:100060000318342809308C00003085180130C10095
:100070004108013A031D5A280C03C00040088C00B7
:1000800040088D005C20400886008230CB00FF30A5
:10009000CA00CB0B4C284F28CA0B4C284928873064
:1000A000CA00CA0B512800000C08013A031D5A2847
:1000B00001308C000F285B28031383120D08003ACF
:1000C000031D6528C0308E00A4280D08013A031DC9
:1000D0006C28F9308E00A4280D08023A031D7328FD
:1000E000A4308E00A4280D08033A031D7A28B030EE
:1000F0008E00A4280D08043A031D812899308E0033
:10010000A4280D08053A031D882892308E00A428E3
:100110000D08063A031D8F2882308E00A4280D0892
:10012000073A031D9628F8308E00A4280D08083AD7
:10013000031D9D2880308E00A4280D08093A031D58
:10014000A42890308E00A4280E08C0000800FF3FAD
:02400E00FA3F77
:00000001FF
