:100000000428FF3FFF3FFF3F063003138312B00079
:1000100044250C30BD005E240130BD005E2401305B
:10002000B0001030B1005330AC004330AD0043306D
:10003000AE00AF012C30B20005250130AA0010300F
:10004000AB001C30BD005E240330FC00FF30FB0021
:10005000FF30FA00FC0B2D283428FB0B3028332806
:10006000FA0B30282D282A288C30FB00FF30FA00AC
:10007000FB0B3B283E28FA0B3B283828A130FA001E
:10008000FA0B40280000AB032B08093A031D49284E
:100090004A2821280130BD005E240330FC00FF30D7
:1000A000FB00FF30FA00FC0B56285D28FB0B59289B
:1000B0005C28FA0B5928562853288C30FB00FF3057
:1000C000FA00FB0B64286728FA0B64286128A1302A
:1000D000FA00FA0B692800000130B0000130B100CD
:1000E0005330AC004330AD004330AE00AF012C3094
:1000F000B20005250330FC00FF30FB00FF30FA00A2
:10010000FC0B83288A28FB0B86288928FA0B862873
:10011000832880288C30FB00FF30FA00FB0B9128ED
:100120009428FA0B91288E28A130FA00FA0B962811
:1001300000000130BD005E240130B0000230B1008B
:100140005330AC004330AD004330AE00AF012C3033
:10015000B20005250330FC00FF30FB00FF30FA0041
:10016000FC0BB328BA28FB0BB628B928FA0BB62823
:10017000B328B0288C30FB00FF30FA00FB0BC128FD
:10018000C428FA0BC128BE28A130FA00FA0BC628F1
:1001900000000130BD005E240130B0000330B1002A
:1001A0005330AC004330AD004330AE00AF012C30D3
:1001B000B20005250330FC00FF30FB00FF30FA00E1
:1001C000FC0BE328EA28FB0BE628E928FA0BE628D3
:1001D000E328E0288C30FB00FF30FA00FB0BF1280D
:1001E000F428FA0BF128EE28A130FA00FA0BF628D1
:1001F00000000130BD005E240130B0000430B100C9
:100200005330AC004330AD004330AE00AF012C3072
:10021000B20005250330FC00FF30FB00FF30FA0080
:10022000FC0B13291A29FB0B16291929FA0B16297D
:10023000132910298C30FB00FF30FA00FB0B212919
:100240002429FA0B21291E29A130FA00FA0B2629AC
:1002500000000130BD005E240130B0000530B10067
:100260005330AC004330AD004330AE00AF012C3012
:10027000B20005250330FC00FF30FB00FF30FA0020
:10028000FC0B43294A29FB0B46294929FA0B46292D
:10029000432940298C30FB00FF30FA00FB0B512929
:1002A0005429FA0B51294E29A130FA00FA0B56298C
:1002B00000000130BD005E240130B0000630B10006
:1002C0005330AC004330AD004330AE00AF012C30B2
:1002D000B20005250330FC00FF30FB00FF30FA00C0
:1002E000FC0B73297A29FB0B76297929FA0B7629DD
:1002F000732970298C30FB00FF30FA00FB0B812939
:100300008429FA0B81297E29A130FA00FA0B86296B
:1003100000000130BD005E240130B0000730B100A4
:100320005330AC004330AD004330AE00AF012C3051
:10033000B20005250330FC00FF30FB00FF30FA005F
:10034000FC0BA329AA29FB0BA629A929FA0BA6298C
:10035000A329A0298C30FB00FF30FA00FB0BB12948
:10036000B429FA0BB129AE29A130FA00FA0BB6294B
:1003700000000130BD005E240130B0000830B10043
:100380005330AC004330AD004330AE00AF012C30F1
:10039000B20005250330FC00FF30FB00FF30FA00FF
:1003A000FC0BD329DA29FB0BD629D929FA0BD6293C
:1003B000D329D0298C30FB00FF30FA00FB0BE12958
:1003C000E429FA0BE129DE29A130FA00FA0BE6292B
:1003D00000000130BD005E240130B0000930B100E2
:1003E0005330AC004330AD004330AE00AF012C3091
:1003F000B20005250330FC00FF30FB00FF30FA009F
:10040000FC0B032A0A2AFB0B062A092AFA0B062AE6
:10041000032A002A8C30FB00FF30FA00FB0B112A64
:10042000142AFA0B112A0E2AA130FA00FA0B162A06
:1004300000000130BD005E240130B0000A30B10080
:100440005330AC004330AD004330AE00AF012C3030
:10045000B20005250330FC00FF30FB00FF30FA003E
:10046000FC0B332A3A2AFB0B362A392AFA0B362A96
:10047000332A302A8C30FB00FF30FA00FB0B412A74
:10048000442AFA0B412A3E2AA130FA00FA0B462AE6
:1004900000000130BD005E240130B0000B30B1001F
:1004A0005330AC004330AD004330AE00AF012C30D0
:1004B000B20005250330FC00FF30FB00FF30FA00DE
:1004C000FC0B632A6A2AFB0B662A692AFA0B662A46
:1004D000632A602A8C30FB00FF30FA00FB0B712A84
:1004E000742AFA0B712A6E2AA130FA00FA0B762AC6
:1004F00000000130BD005E240130B0000C30B100BE
:100500005330AC004330AD004330AE00AF012C306F
:10051000B20005250330FC00FF30FB00FF30FA007D
:10052000FC0B932A9A2AFB0B962A992AFA0B962AF5
:10053000932A902A8C30FB00FF30FA00FB0BA12A93
:10054000A42AFA0BA12A9E2AA130FA00FA0BA62AA5
:1005500000000130BD005E240130B0000D30B1005C
:100560005330AC004330AD004330AE00AF012C300F
:10057000B20005250330FC00FF30FB00FF30FA001D
:10058000FC0BC32ACA2AFB0BC62AC92AFA0BC62AA5
:10059000C32AC02A8C30FB00FF30FA00FB0BD12AA3
:1005A000D42AFA0BD12ACE2AA130FA00FA0BD62A85
:1005B00000000130BD005E240130B0000E30B100FB
:1005C0005330AC004330AD004330AE00AF012C30AF
:1005D000B20005250330FC00FF30FB00FF30FA00BD
:1005E000FC0BF32AFA2AFB0BF62AF92AFA0BF62A55
:1005F000F32AF02A8C30FB00FF30FA00FB0B012BB2
:10060000042BFA0B012BFE2AA130FA00FA0B062B61
:1006100000000130BD005E240130B0000F30B10099
:100620005330AC004330AD004330AE00AF012C304E
:10063000B20005250330FC00FF30FB00FF30FA005C
:10064000FC0B232B2A2BFB0B262B292BFA0B262BFF
:10065000232B202B8C30FB00FF30FA00FB0B312BBF
:10066000342BFA0B312B2E2BA130FA00FA0B362B40
:1006700000000130BD005E24AA0A04283E2B592543
:10068000592559253508F0000130F4007008031988
:100690004D2BF40D7410FF3F472B7408A40036084F
:1006A000F0000130F300700803195A2BF30D73109A
:1006B000FF3F542B7308A5003708F0000130F2000B
:1006C00070080319672BF20D7210FF3F612B72083F
:1006D000A6003808F0000130F10070080319742BEF
:1006E000F10D7110FF3F6E2B7108A7003A08F00062
:1006F0000130A20070080319812BA20D2210FF3FC8
:100700007B2B3B08F0000130A900700803198C2BEB
:10071000A90D2910FF3F862B3C08F0000130A100F5
:1007200070080319972BA10D2110FF3F912B34085E
:10073000A3003908A0003408840073087404F00092
:100740007208F0047108F004F0097008800584173D
:1007500025082404F0002608F0042708F004F00916
:100760007008800584132008840029082204F00002
:100770002108F004F0097008800584172908220474
:10078000F0002108F004F0097008800584132308A4
:10079000840026080004F000270870048000200868
:1007A0008400210880042109F00070088005592583
:1007B000210880042109F0007008800559252108CE
:1007C00080042109F0007008800559252308840061
:1007D000260880042709F00070088005200884009E
:1007E000210880042109F00070088005592521089E
:1007F00080042109F100710880052308840026097E
:10080000F000700880052408800420088400210876
:100810008004710880055925230884002409F0000C
:1008200070088005270880042008840021088004BF
:100830002109F10071088005230884002709F000D0
:100840007008800520088400210880047108800554
:100850005925210880042109F0007008800523082B
:100860008400270880042008840021088004700880
:1008700080055925230884002709F00070088005A9
:1008800020088400210880042109F10071088005F6
:100890002308840027080004F0002608F004250837
:1008A000F0042408700480002008840021088004DB
:1008B0007108800559250130A80008000313831230
:1008C000200884002109F000700880052209F0004A
:1008D000700880052308840025082404F0002608F9
:1008E000F0042708F004F009700880050030BD1BF3
:1008F0000130F1007108013A031D802C24088004A6
:1009000000303D1B0130F1007108013A031D8A2CB3
:10091000250880040030BD1A0130F1007108013A49
:10092000031D942C2608800400303D1A0130F1008C
:100930007108013A031D9E2C2708800420088400BA
:100940002808013A031DA92C2209F000700880052F
:10095000AB2C22088004210880047B252109F000AB
:10096000700880052209F0007008800523088400C3
:1009700025082404F0002608F0042708F004F009F4
:10098000700880050030BD190130F1007108013A8E
:10099000031DCC2C2408800400303D190130F100E7
:1009A0007108013A031DD62C250880040030BD18BB
:1009B0000130F1007108013A031DE02C2608800483
:1009C00001303D05F1007108013A031DE92C2708AB
:1009D0008004200884002808013A031DF42C220911
:1009E000F00070088005F62C22088004210880049D
:1009F0007B252109F000700880052808013A031DB5
:100A0000032D5925042D7325080003138312300884
:100A1000013A031D0E2D8030B000252D3008023A1A
:100A2000031D152DC030B000252D3008033A031DDD
:100A30001C2D9430B000252D3008043A031D232DC1
:100A4000D430B000252D8030B0003103F0003008E4
:100A5000F0077008B0007008BD005E24A801B30163
:100A60003308320784000008F2007208003A0319C4
:100A7000412D3308320784000008B4006A25B30A08
:100A8000302D0130A8000800031383123008B40091
:100A90000730B5000630B6000530B7000430B800A6
:100AA0003008B9000230BA00BB010330BC003F235C
:100AB0000800083003138312FB00FF30FA00FB0B21
:100AC000622D652DFA0B622D5F2D1E30FA00FA0B98
:100AD000672D080003138312A8013408BD005E24AB
:100AE0000130A8000800103003138312FA00FA0B3B
:100AF000772D0000080000000800FF3FFF3FFF3F88
:02400E007A3FF7
:00000001FF
