:100000004F28FF3FFF3FFF3F031383120D08003AC5
:10001000031D0D28C0308E004C280D08013A031D29
:100020001428F9308E004C280D08023A031D1B28B5
:10003000A4308E004C280D08033A031D2228B0304E
:100040008E004C280D08043A031D292899308E0093
:100050004C280D08053A031D302892308E004C289C
:100060000D08063A031D372882308E004C280D08F3
:10007000073A031D3E28F8308E004C280D08083A38
:10008000031D452880308E004C280D08093A031DB9
:100090004C2890308E004C280E08C0000800031336
:1000A000831685018601831285018D010420400895
:1000B00086008C0101300505C1004108013A031D8D
:1000C0008F280C0AC00040088C0040088D000420D6
:1000D000400886000230CC00FF30CB00FF30CA0061
:1000E000CC0B73287A28CB0B76287928CA0B762874
:1000F000732870280630CB00FF30CA00CB0B812854
:100100008428CA0B81287E280A30CA00CA0B862898
:1001100000000C08093C03188F2809308C005A286D
:100120009028FF3FFF3FFF3FFF3FFF3FFF3FFF3F65
:02400E00FA3F77
:00000001FF
